:020000040100F9
:100000000000012149DC02011DDC0201FDDB0201CF
:100010001DDC02011DDC02011DDC02011DDC0201F0
:100020001DDC02011DDC02011DDC02011DDC0201E0
:100030001DDC02011DDC02011DDC02011DDC0201D0
:100040001DDC02011DDC02011DDC02011DDC0201C0
:100050001DDC02011DD702011DDC02011DDC0201B5
:10006000CDEB02011DDC020151D402011DDC0201B5
:100070007DD902011DDC02011DDC02011DDC020133
:100080001DDC0201C9D702018DD60201CDD90201C2
:100090001DDC02011DDC0201D5D702011DDC0201BD
:1000A0008DD902019DD902011DDC02011DDC020176
:1000B0001DDC02011DDC0201000000000000000048
:1000C0000000000000000000000000000000000030
:1000D0000000000000000000000000000000000020
:1000E0000000000000000000000000000000000010
:1000F0000000000000000000000000000000000000
:10010000002070470388F7B5A3F57C4306460C46EC
:10011000032B4DD8DFE803F00212204391F90000D1
:1001200000F0F8FA04460120318824F0C7FB18B12A
:1001300000F8054924F064FB01203AE0CB788A7886
:10014000207802EB0322497892B22EF0D5FB08B159
:100150000024E8E71224E6E7CA798B79497903EBB2
:1001600002232279E07802EB0122A178657801EB85
:1001700000212078E77A00EB0520A57A9BB205EBF9
:100180000725ADB20195657A247A92B204EB052475
:10019000A4B2009489B280B22FF07AFDD7E7087834
:1001A0002EF076FC0028D5D060782EF08DFCCEE7BE
:1001B000002003B0F0BD00002DE9F047B54E86B039
:1001C000B5482EF045F8304626F040F9382206F1C1
:1001D0000C0102202EF048F838220120B1182EF030
:1001E00043F83822062006F13F012EF03DF80B239C
:1001F0003371738CB3F5F87F04D94FF4BD71A74800
:100200002CF0D4F8338DB3F5F87F04D940F27B118C
:10021000A2482CF0CBF8738C328D03F11C049A4267
:10022000A4B204D04FF4D0719C482CF0BFF8B4F5C0
:10023000877F04D240F2A31198482CF0B7F810231E
:10024000ADF8043008238DF806302023ADF80830CF
:10025000802340F20D120427ADF80C30737BADF80B
:1002600010208DF80E3096F820208DF81230F37F94
:100270000DEB0701134496F826200520134496F849
:1002800027208DF80A7013448DF81630ADF814400D
:100290002CF08EF880B22CF00FFA2CF0C9FA2CF06A
:1002A0009FFC00F069F92CF017FA80462CF01AFA3E
:1002B000044679482BF010F922464146384603F0AF
:1002C000A9FF08EB0009A4EB000A0546524649467F
:1002D000384603F0DBFA0544AAEB000209EB000103
:1002E000384603F0D7FB47196A4826F0DBF8B57F9C
:1002F000B844E41B35B12146404626F02DFB0546A7
:100300008044241A2146404626F036FA241A8044B6
:1003100021460544404626F073FA241A804481465B
:100320002146404626F0EAFA241A804482462146B5
:10033000404626F0A5FA3D44211A0746404426F0DF
:1003400075FB00244D4455443D4405442BF0F2F820
:1003500002F0CCFF00F0DCFC02F0ECFD01F0E6FB6B
:1003600002F054FF01F080F901F09EF901F00CFE5B
:100370002EF0FEFA02F012FA02F004FC01F0BCFECC
:1003800001F096FF03F01EFF45482CF03BFA2BF0DE
:1003900011FF26F0DFF926F023FB26F0FDFA26F008
:1003A0001DFA26F00BFB26F05FFB26F065FB26F01E
:1003B000FDF926F025FB26F053FB26F08BFA26F0FC
:1003C0004DFA26F037FA26F069FB26F0B1FA26F04E
:1003D0006FFA26F0BFFA26F045FB32482CF012FAED
:1003E00026F0BAF830482CF00DFA328D718C2BF0D3
:1003F0001FFA25F0ADFB25F0B7FC25F065FC25F0D4
:10040000D7FB25F0C1FC25F035FC25F0C3FB25F01A
:100410009BFC25F03BFD25F0ABFB25F075FC25F0A2
:10042000D7FB25F049FC25F021FD25F00BFD25F03B
:1004300001FC25F0DFFB25F0EDFB25F00BFC25F0A2
:10044000E1FC1A482CF0DEF925F0B0FC25F0A4FE02
:10045000174825F077FB28462CF02EF901A80194C7
:10046000ADF8084026F01CFB042168462EF0A8F8E1
:10047000684629F0BDFB012200214FF4003026F030
:10048000F1FB0C482CF0E4F92CF0EEF9204606B014
:10049000BDE8F087A8010021980100210C3B030171
:1004A000D5C10201096602015DB802011D640201A5
:1004B0000501000101010001014B1878704700BFE0
:1004C00000000720014B1970704700BF0000072093
:1004D000012070470122014B5A6070470020014102
:1004E00038B5C4003434204632F0B8FA054618B1A5
:1004F0002246002132F0E9FA284638BD31F0FEB933
:1005000070B50E463AB1541EA0B22CF0FFF8054665
:1005100060B92FF049F9002070BD2A460321002060
:100520002BF0F2F9F7E72A460121F8E72246711C81
:1005300032F0A4FA3378022BF5D0052BEDD0012B45
:10054000E9D12A460021EAE7C30703D5024B5868E0
:1005500031F06AB8704700BF3402002148F29C6352
:10056000C360044B436003F554730360202383602E
:1005700000207047048007201FB56846FFF7EEFF94
:1005800008B12FF011F90298FFF7AAFF064C20607E
:1005900008B92FF009F90298FFF7A2FF606008B9C7
:1005A0002FF002F904B010BD3402002130B5384BF1
:1005B0008BB004AC93E80300002284E8030007201A
:1005C00034492DF019F8344B984201D02FF0ECF853
:1005D00032482DF02DF806A8FFF7C0FF08B12FF024
:1005E000E3F8204631F016FF08B12FF0DDF82C4873
:1005F000099B436131F0F0FE08B12FF0D5F8294A8C
:1006000029492A4831F0B4FE08B12FF0CDF8254B26
:10061000274C1B689A68002A37D122602FF0C4F853
:100620000420244A069990601062012051602249FA
:1006300023680D684968156091612049BDF8204024
:100640008861079D022053619481D362D5619484AF
:10065000CA62002288621A4808621A48009231F081
:1006600045FD08B12FF0A0F8174B184A0293184B1C
:10067000144901934FF0FF331648009331F0BEF850
:1006800008B12FF091F80BB030BD0C332360C7E7F1
:100690005C3B0301490500010000AD0B643B030115
:1006A00000000021EC0100213E3B0301483B030117
:1006B000F0010021E402002134020021180300218E
:1006C000E83B03013C020021FD040001503B030113
:1006D00001050001F4010021022907B5184603F1C4
:1006E000FF3310D1042100F8011C012108480A44FD
:1006F00001910092D0E9091230F0CAFF03B05DF811
:1007000004EB2BF073B801290CBF02210521EAE7A5
:10071000F4010021024B83F87A000020704700BFEB
:10072000C85300212DF086BD2DE9F8431C4603690E
:1007300007460E469046D0F828901BB93F211D4829
:100740002BF034FEFD682AF0F1FF99F80D302C44AF
:10075000022B04440DD0032B0DD0012B00D12834E3
:10076000306C3D690319AB4208D935640020BDE8FF
:10077000F8831834F4E704F5A874F1E77B682D1AC0
:1007800063B1414698682AF0D7FF854228BF0546E5
:10079000AC4203D9336C2B443364E7E7281B4FF496
:1007A0007A75054B1B689C886C43A04228BF204685
:1007B000DDE700BF0C3C0301B05600211FB501234B
:1007C0008DF80430002301A8CDE902332DF0B0FCF0
:1007D00005B05DF804FB1FB5002301A8CDE9013386
:1007E00003932DF0A5FC05B05DF804FB2DE9F8435B
:1007F00004468846866A2DF0DBFF05460146A06860
:1008000006F190072AF098FF78B9A368DFF88C907A
:10081000C9F87C302AF08AFF2844A060D9F87C10FF
:1008200028462AF089FFC6F8D000D6F89C300BB1D4
:1008300020469847394600232046A268FFF774FFF8
:10084000074618B9BDE8F8432AF03ABF134DA3682C
:100850004046EB672DF0F8FB114BC5F88C70C5F8DE
:100860008030104B05F18000C5F88430A368C5F8CE
:100870008830A3602DF054FC002385F87830D6F83A
:10088000943043B1FFF79AFFD6F890002721BDE8D6
:10089000F8432DF09DBCFFF79EFFF5E76C060021A5
:1008A000D90B0001450900012DE9F84380460C46AB
:1008B0002AF010FF064618B101263046BDE8F8833D
:1008C0002DF076FF1D4D8146E96F2AF035FF236C30
:1008D00003442364C5F87C902AF028FF4A46034667
:1008E00021464046FFF720FF07460028E4D0636A10
:1008F00053B1024649464046984728B10122D8F8EC
:10090000283083F8C020D8E7D5F87C802AF00EFF85
:100910004044C5E922070A482DF002FC002385F86F
:100920007830636833B1FFF749FF272120682DF045
:100930004FFCC2E7FFF74FFFF7E700BF6C0600214F
:10094000EC0600212DE9F04F87B006468B46924613
:100950009DF8409003932DF02BFFDFF86C82C8F8D0
:1009600000002AF0A7FE20B940F2471197482BF06B
:100970001DFD2AF09FFE846A0746D4F8BC50BDB125
:1009800094F8C030012B13D1039BCDF80490009351
:100990005A4653463146D4F8B000A847012804D13E
:1009A0000023C4F8B03084F8C03007B0BDE8F08F41
:1009B000874B884D93F87800421C83F8782098B1D3
:1009C000022800F0AA804FF4FA7180482BF0EEFC68
:1009D000AC8C2DF0EDFED8F80030C01A844240F205
:1009E000E480A88CA884E0E70EB3F31E012B40F24C
:1009F000E580042E00F0878000F28D800346012000
:100A0000032E7AD002461846EB690133EB610346A8
:100A100010463BB116F0FB0F63D0384604F190014D
:100A2000FFF742FF0028D3D02AF05AFED0E7D4F8CF
:100A3000A03023B940F26F1164482BF0B7FCD4F812
:100A4000903023B94FF4B87160482BF0AFFC039B92
:100A50000022C4F8CC30D4F8900084F8C3B0C4F8B5
:100A6000C8A084F8C49004F1D80304F1780102F01E
:100A70003FFD00283FD03846D4F8A030D4F890107D
:100A80009847002800F09880D4F8943023B940F2B9
:100A90007B114E482BF08AFCB5F822902DF088FE91
:100AA000D8F80030C01A81451ED9688C94F8C1303E
:100AB0006884ADF81030D4F894300593FFF77EFECB
:100AC000012104A82DF066FBD4F8A4301BB13846F0
:100AD000D4F8901098472B6801332B60002E3FF418
:100AE00077AF2DF0A5FB98E72DF062FED8F8003027
:100AF000C01A80B2DAE70126EDE7AA680132AA60DF
:100B0000002B8AD18EE7034601206A6801326A60B1
:100B1000002BE6D186E7012276E7D4F8AC3023B982
:100B200040F2BD1129482BF041FCD4F8983023B98C
:100B30004FF4DF7125482BF039FC6EB1F31E012B09
:100B40001ED9042E4FF000034FF0010029D022D906
:100B5000EA690132EA615CE73246D4F8980004F1B0
:100B6000D80304F1780102F0C3FC28B13846D4F868
:100B7000AC30D4F8981098472B6901332B61B0E75B
:100B8000D4F8AC30002138469847042E4FF00103CA
:100B90004FF0000005D0032EDAD1AA690132AA6114
:100BA000AEE76A6901326A61B2E72DF001FED8F85A
:100BB0000030C01A80B215E7012685E7042E4FF0F9
:100BC00001037FF41DAFA0E7F00500210C3C0301F9
:100BD0006C060021480300212DE9F84381462DF0E1
:100BE000E7FD474E30602AF065FD18B9BD21454844
:100BF0002BF0DCFB2AF05EFD846A0746D4F8B8309F
:100C000083B194F8C020012A0CD14946D4F8B00031
:100C10009847012804D10023C4F8B03084F8C030CC
:100C2000BDE8F883384B394D93F8788008F101021C
:100C3000B8F1010F83F8782048D1B9F1000F5AD1EB
:100C4000D4F8A8301BB9E3212E482BF0AFFBD4F821
:100C500094301BB9E4212B482BF0A8FB3846D4F87C
:100C6000A830D4F894109847C8B1D4F898301BB97C
:100C7000E82124482BF09AFBB5F820802DF098FD50
:100C80003368C01A80451BD92B8C2B84FFF7A3FD3A
:100C90002721D4F898002DF0C1FA4FF00008EB6836
:100CA0000133EB60B8F1000F15D02DF0C1FA3846D2
:100CB00004F19001FFF7F8FD68B12AF011FD0AE098
:100CC0002DF076FD3368C31A9BB2DEE74FF48771CF
:100CD0000C482BF06BFBEC8C2DF06AFD3368C01ACE
:100CE000844202D9E88CE8849AE72DF061FD3368EC
:100CF000C01A80B2F7E7EB690133EB61DDE700BFB3
:100D0000F00500210C3C03016C0600214803002182
:100D100008B50220054A064902F022FBBDE808405A
:100D200028220021034831F0D0BE00BF2507000172
:100D3000ED0700014803002130B50446044D0FCDF6
:100D40000FC40FCD0FC495E8030084E8030030BD45
:100D5000480300211FB5002301A8CDE90133039307
:100D60002DF0E6F905B05DF804FB1FB501238DF801
:100D70000430002301A8CDE902332DF0D9F905B0E4
:100D80005DF804FB70B50546866A08462DF05CF9EF
:100D9000124C134B04F18000C4F88030114BC4F89E
:100DA0008430D6F8AC30C4F88C30AB68C4F88830E6
:100DB000AB602DF0B5F9002384F87830D6F8903088
:100DC00043B1FFF7D2FFBDE8704040F20111064881
:100DD0002DF0FEB9FFF7BEFFF5E700BF6C0600215E
:100DE000A5110001111600017003002170B5054620
:100DF000866A08462DF028F90D4C0E4B04F1800050
:100E0000C4F88430D6F89830C4F88C30AB68C4F895
:100E10008830AB602DF084F9002384F87830FFF738
:100E200099FFBDE8704040F2011103482DF0D0B9A0
:100E30006C0600213D0E0001A80400212DE9F04FB1
:100E400085B099469DF8383006468B46039202934A
:100E50002DF0AEFCDFF8A882C8F800002AF02AFCCA
:100E600020B940F25921A7482BF0A0FA2AF022FC21
:100E7000DFF894A207469AF87830846AA34DABB1A4
:100E8000032B00F0AE804FF446719E482BF08EFA93
:100E90002C8C2DF08DFCD8F80030C01A844240F222
:100EA0002281288C288405B0BDE8F08FEEB1F21EB7
:100EB000012A40F21F81042E00F0878000F28F800B
:100EC0001A460123032E7AD019461346AA69013225
:100ED000AA611A460B46002A7ED016F0FB0F01D1FC
:100EE0002DF0A6F92AF0FCFBD2E7D4F8903023B914
:100EF0004FF41D7183482BF059FAD4F8943023B97C
:100F000040F275217F482BF051FA03238AF878309C
:100F1000039B0022C4E92B39012384F8B430029BDF
:100F2000384684F8AB307A49D4F8903084F8AAB0C7
:100F30009847064670B320462DF086F84E44754813
:100F4000CAF888602DF0ECF8AE8B2DF031FCD8F8A3
:100F50000030C01A864216D9A88BA883FFF7FAFE84
:100F600040F201116A482DF033F93846D4F8943034
:100F700069499847B0FA80F040092B6801332B602B
:100F8000002885D0ACE72DF013FCD8F80030C01A4B
:100F900080B2E2E7D4F89C2052B1D4F8A0603EB110
:100FA00094F8A830494600933846D4F8A430B047A6
:100FB0003846D4F89430564998470120DDE7A968AF
:100FC0000131A960002A8DD106E01A460123696823
:100FD00001316960002A83D1002B83D158E70121B8
:100FE00074E7D4F89030AEB1F21E012A63D93246CC
:100FF00000219847D4F89430002138469847042EB1
:101000004FF000024FF0010369D062D9A9690131A4
:10101000A96160E723B940F2C9213A482BF0C6F92B
:10102000D4F8943023B940F2CA2136482BF0BEF9E7
:101030000022029B384684F8AB303549D4F8903012
:1010400084F8B42084F8AAB09847064660B32046D6
:101050002CF0FAFF4E442F48CAF888602DF060F853
:10106000AE8B2DF0A5FBD8F80030C01A864214D9FB
:10107000A88BA883FFF76EFE40F2011124482DF0E3
:10108000A7F83846D4F8943023499847B0FA80F04E
:101090004009EB680133EB6072E72DF089FBD8F86B
:1010A0000030C01A80B2E4E73846D4F894301849CA
:1010B00098470120EDE7324600219847D4F8943054
:1010C000002138469847042E4FF001024FF00003EC
:1010D00005D0032E9AD169690131696172E72969E6
:1010E0000131296176E72DF063FBD8F80030C01A92
:1010F00080B2D7E6042E4FF001027FF4E3AE66E73C
:10110000F0050021463C03016C060021AC050021DE
:10111000A8040021EC0600217003002170B50E46E2
:1011200018B93D211A482BF041F91A4B93F8785021
:101130006A1C012D83F878201ED1174C0EBBA68D9A
:101140002DF036FB154D2B68C01A86420ED9A08DA6
:10115000A085FFF7FFFD40F2011111482DF05EF868
:10116000E3680133E3600025284670BD2DF020FBC5
:101170002B68C01A80B2EBE7702105482BF016F9F6
:10118000F1E7A36A0133A3622AF0AAFAECE700BFF1
:10119000463C03016C06002174040021F005002187
:1011A0007003002170B504462DF002FB0B4D286042
:1011B0002AF080FA21460A4CFFF7B0FF668E2DF028
:1011C000F7FA2B68C01A864202D9608E608670BD1D
:1011D0002DF0EEFA2B68C01A80B2F7E7F005002177
:1011E000740400212DE9F04F85B00E469346054664
:1011F000DDF838909DF83CA0019318B9AD21B148B5
:101200002BF0D4F8DFF8C082AC6A98F87800022896
:1012100000F0D880032800F06581002840F0DF81CD
:10122000AA4F06B3F31E012B40F2E281042E00F018
:10123000BB8000F2C58003460120032E00F0AD8084
:1012400002461846BB6A0133BB6203461046002BB8
:1012500000F0B28016F0FB0F01D12CF0E9FF2AF06C
:101260003FFA0120C1E1D4F894301BB9C721954859
:101270002BF09CF8019B2846C4E92D399449D4F8F9
:10128000943084F8B1B084F8B2A09847064600289C
:1012900070D0D4F89030002B6CD00123B7F82EB06A
:1012A00088F878302DF084FADFF828A2DAF80030D8
:1012B000C01A834557D9FB8DFB8594F8A830ADF84B
:1012C0000830D4F890300393FFF74FFD012102A8B6
:1012D0002CF060FFD4F8983013B128467C49984729
:1012E000002E58D1D4F8A030002B4CD02846784995
:1012F00098470646002846D0032388F878302CF01B
:1013000097FF20462CF0A0FE4E447348C8F8886032
:101310002CF006FFB7F82C802DF04AFA6D4E33689A
:10132000C01A804529D9B88DB885FFF713FD40F262
:10133000011167482CF04CFFD4F8A43023B94FF4C6
:10134000827160482BF032F82846D4F8A430604906
:101350009847B0FA80F040093B6801333B600028B1
:1013600000F0438179E72DF023FADAF80030C31A50
:101370009BB2A1E72CF05CFFACE72DF019FA3368C3
:10138000C01A80B2D0E7D4F8A43013B1284650492F
:1013900098470120E0E70020DEE7BA680132BA6032
:1013A000002B7FF45CAF07E0034601207A6801322E
:1013B0007A60002B7FF451AF00287FF450AF14E126
:1013C00001223FE7032388F87830D4F89C3023B912
:1013D0004FF49D713B482AF0E9FF3C4F6EB1F31E7C
:1013E000012B5DD9042E4FF000034FF0010075D0A2
:1013F00061D9BA6A0132BA6229E7019B2846C4E979
:101400002D393349D4F89C3084F8B1B084F8B2A0B7
:101410009847D4F8A030002B3AD028462C4998475A
:101420000646002834D020462CF00EFE4E442A48B2
:10143000C8F888602CF074FEB7F82C802DF0B8F94D
:10144000244E3368C01A80451CD9B88DB885FFF783
:1014500081FC40F201111E482CF0BAFED4F8A430F1
:1014600023B940F25B1117482AF0A0FF2846D4F8B0
:10147000A43017499847B0FA80F040093B6901331E
:101480003B616CE72DF094F93368C01A80B2DDE758
:10149000D4F8A43013B128460D4998470120EDE750
:1014A000D4F89C30002128469847042E4FF00103C1
:1014B0004FF0000012D0032E9BD1BA690132BA61FD
:1014C0006EE700BF463C03016C0600217404002156
:1014D00070030021F0050021EC0600217A69013239
:1014E0007A6166E7D4F8A03023B94FF4C971434854
:1014F0002AF05CFFD4F8A030414FD6B1F21E012A89
:101500005AD9002128469847D4F8A43013B10021B5
:1015100028469847042E4FF000034FF001005AD0A0
:101520003FF667AF032E7FF464AF7A6A01327A62C6
:1015300036E72846334998470646002834D02046E7
:101540002CF082FD4E443048C8F888602CF0E8FD4D
:10155000B7F82C802DF02CF92C4E3368C01A80453A
:101560001CD9B88DB885FFF7F5FB40F2011125486D
:101570002CF02EFED4F8A43023B94FF4D6711F48B6
:101580002AF014FF2846D4F8A4301E499847B0FA30
:1015900080F04009FB690133FB61E0E62DF008F9BA
:1015A0003368C01A80B2DDE7D4F8A43013B12846FE
:1015B000144998470120EDE7002128469847D4F8C0
:1015C000A43013B1002128469847042E4FF00103A0
:1015D0004FF00000A6D13A6A01323A62E9E60748C4
:1015E00040F2E7112AF0E2FE002005B0BDE8F08FDE
:1015F000042E4FF001037FF420AED7E6463C0301F2
:101600007404002170030021EC060021F005002184
:101610002DE9F3410E461746984604462DF0C8F8CA
:101620000F4D28602AF046F89DF8203021460D4CD9
:101630003246CDE900833B46FFF7D4FD268E2DF0E0
:10164000B7F82B68C01A864204D9208E208602B0D3
:10165000BDE8F0812DF0ACF82B68C01A80B2F5E738
:10166000F00500217404002108B500220620054978
:1016700001F076FEBDE8084034220021024831F036
:1016800024BA00BF850D00017404002130B5044662
:10169000044D0FCD0FC40FCD0FC40FCD0FC42B6859
:1016A000236030BD7404002108B5002209200549DB
:1016B00001F056FEBDE8084024220021024831F026
:1016C00004BA00BFED0D0001AC05002130B50446A1
:1016D000034D0FCD0FC40FCD0FC42B68236030BD59
:1016E000AC05002170B50446866A08462CF0ACFCB7
:1016F0000F4DD6F8AC3005F18000C5F88C30A368EA
:10170000C5F88830A3602CF00BFD002385F87830F5
:10171000D6F8903043B1FFF728FBBDE8704040F2A7
:10172000011104482CF054BDFFF714FBF5E700BF8E
:101730006C060021700300212CF07CBD1FB5002336
:1017400001A8CDE9013303932CF0F2FC05B05DF85C
:1017500004FB00002DE9F04F85B080460E4693460D
:10176000994629F0B7FF074668B93E4CD8F828A03B
:1017700094F87A3094F87950032B06D118B184F894
:101780007A3084F87950012754E0022D92BF2A461E
:10179000033DEAB202F125018AF80110F17E551CE1
:1017A00041FA02F20133D2074FF00100DBB2EDB291
:1017B000E2D584F87A3084F87950B9F1000F04D179
:1017C0001BF0FB0F01D12CF033FD50462CF03CFCFC
:1017D000B9F1000F04D0D8F80830C4F8883009E017
:1017E00073685BB32CF0E4FF054629F09FFF2844A3
:1017F000C4F88800002384F87830F3681BB14046B1
:10180000D4F88810984718482CF08AFC736833B3D2
:1018100001238DF80430002301A8CDE902332CF018
:1018200087FC337E0121ADF80430336801A80293B0
:101830002CF086FC384605B0BDE8F08F327E9AF871
:101840000E109AF80C0028F036FD054629F06EFFC0
:10185000284428F097FDD4F888300344BDE7FFF70B
:101860006DFFDEE76C060021EC0600210F4B104AED
:1018700010B5816AC3F880200E4A91F8AA40C3F8D7
:1018800084200422C3F88C20002283F8794083F856
:10189000782083F87A2090310123FFF75BFF18B19D
:1018A000BDE8104029F00CBF10BD00BF6C06002140
:1018B000391A0001B91800012DE9F3470646994687
:1018C0002CF076FFDFF86081C8F8000029F0F2FE06
:1018D00020B94FF4887155482AF068FD29F0EAFED6
:1018E000534A856A92F878300746591C012B514CAF
:1018F00082F8781040F08B8005F1900A002E5BD1C1
:10190000D5F8A03023B94FF4967148482AF04EFD1F
:10191000D5F8943023B940F22D1144482AF046FD01
:10192000C5F8AC900022D5F8940005F1B00305F19C
:10193000780101F0DDFD814668B33846D5F8A03066
:10194000D5F89410984730B3B4F81A902CF030FFC3
:10195000D8F80030C01A814516D9608B6083FFF734
:10196000EDFE95F8A9300121ADF80030D5F898309A
:10197000684601932CF00EFCD5F8A430ABB1384684
:10198000D5F89410984710E02CF012FFD8F80030EA
:10199000C01A80B2E2E7002351461A463846FFF7E4
:1019A000D9FE0646B9F1000FE6D1636801336360E2
:1019B00006B32CF03DFC15E0002332465146FFF7FC
:1019C000C9FE042E11D001D8032E07D0636901335C
:1019D000636178B116F0FB0F04D1EAE7E3680133E5
:1019E000E36038B129F07CFE04E0A3680133A36012
:1019F0000028DED1A58B2CF0DBFED8F80030C01A11
:101A000085420AD9A08BA08302B0BDE8F0874FF4CD
:101A1000B77106482AF0CAFCECE72CF0C9FED8F8EA
:101A20000030C01A80B2EEE7F0050021833C0301CC
:101A30006C060021D00500212DE9FF4107462CF05E
:101A4000B7FE364E306029F035FE18B9A321344870
:101A50002AF0ACFC29F02EFE324C2FB16369013321
:101A6000636129F03DFE10E02F4BD0F8288093F8F9
:101A7000785008F190016A1C83F878208DB1022D0E
:101A80003DD0DA2126482AF091FCE58B2CF090FE1F
:101A90003368C01A85423BD9E08BE08304B0BDE8CF
:101AA000F081D8F8943023B3278B2CF081FE336873
:101AB000C01A874217D9208B01238DF804300023E8
:101AC000208301A8CDE902332CF032FB2421D8F881
:101AD00094002CF0A3FB236801332360002DD4D0A5
:101AE0002CF0A6FBBDE72CF063FE3368C01A80B271
:101AF000E2E73B463A46FFF72DFE0546EBE73B465D
:101B00003A46FFF727FE2369054601332361E5E7DF
:101B10002CF04EFE3368C01A80B2BEE7F0050021FB
:101B2000833C0301D00500216C06002108B5032089
:101B3000054A064901F014FCBDE8084020220021B6
:101B4000034830F0C2BF00BF391700016D18000113
:101B5000D005002130B50446034D0FCD0FC495E8E4
:101B60000F0084E80F0030BDD00500211FB5002311
:101B700001A8CDE9013303932CF0DAFA05B05DF842
:101B800004FB00002DE9F047064689469A462CF0F2
:101B90000FFE654F386029F08DFD18B9EA216348C2
:101BA0002AF004FC29F086FD614A846A92F87830B4
:101BB0008046591C012B5F4D82F8781040F09E80C2
:101BC000002E40F08480D4F8C43023B94FF48171E2
:101BD00056482AF0EBFB9DF8203084F8FA9084F800
:101BE000D13094F8F830C4F8D4A004EB8303D3F8D0
:101BF000F010002940D04046D4F8C430984700285F
:101C00003AD0B5F81E902CF0D3FD3B68C01A814540
:101C100028D9E88BE883FFF7A9FFD4F8C8203AB1A8
:101C200094F8F830404604EB8303D3F8F010904763
:101C300094F8F83094F8F9200133DBB29A4284F832
:101C4000F83015D904EB830340F20111D3F8F0000A
:101C50002CF0BEFA6B6801336B60002E53D02CF071
:101C6000E7FA44E02CF0A4FD3B68C01A80B2D1E74B
:101C7000002384F8F830EDE7D4F8A01009B9012664
:101C8000E8E74046D4F8C43098470028F7D0B5F8C4
:101C90001E902CF08DFD3B68C01A814511D9E88B50
:101CA000E883FFF763FF022104F1A4002CF072FA2D
:101CB000D4F8C830002BCDD04046D4F8A0109847B7
:101CC000C8E72CF075FD3B68C01A80B2E8E7042E27
:101CD00010D001D8032E07D0AB6916F0FB0F03F12B
:101CE0000103AB6103D1BAE7EB680133EB6029F084
:101CF000F7FC08E0AB680133AB60B0E740F2551188
:101D00000A482AF053FB2C8C2CF052FD3B68C01A79
:101D1000844203D9288C2884BDE8F0872CF048FD44
:101D20003B68C01A80B2F6E7F0050021BC3C030115
:101D30006C060021F4050021F8B5CB6B06460C4675
:101D40000BB90120F8BD0121984705460028F8D0BD
:101D5000B06A2CF079F91148114ED0F888308030F3
:101D60002B44104D83602CF0DBF9AF8B2CF020FD61
:101D70003368C01A87420AD9A88BA883FFF7F6FEFA
:101D800004F1240002212CF0DBF90020DAE72CF02A
:101D90000FFD3368C01A80B2EFE700BF6C06002168
:101DA000F0050021F40500212DE9FF4705462CF040
:101DB000FFFC4C4F386029F07DFC18B95D214A4882
:101DC0002AF0F4FA29F076FC484C81462DB1A3693B
:101DD0000133A36129F084FC71E0DFF81481866A85
:101DE00098F8785006F1900A022D44D0032D5AD06D
:101DF000002D60D1D6F8A03073B90323514688F87E
:101E00007830FFF799FF0546236801332360002DE2
:101E100055D02CF00DFADDE796F8F83006EB830389
:101E2000D3F8F00028B1D6F8FC30002BECD098475E
:101E3000EAE7012388F87830B4F81C802CF0B8FC6D
:101E40003B68C01A804510D9A08B01238DF804305F
:101E50000023A08301A8CDE902332CF069F92421E5
:101E6000D6F8A0002CF0DAF9CEE72CF0A1FC3B6804
:101E7000C01A80B2E9E7032388F878300E2296F87A
:101E8000D110707BD6F8D45028F015FA9635054459
:101E900051464846C8F88850FFF74EFF236905466B
:101EA00001332361B3E75146FFF746FF63690546F7
:101EB00001336361ABE7B5210B482AF077FA658CF3
:101EC0002CF076FC3B68C01A854204D9608C608493
:101ED00004B0BDE8F0872CF06BFC3B68C01A80B200
:101EE000F5E700BFF0050021BC3C0301F40500212B
:101EF0006C060021F0B51F4B1F4C866AC4F8803079
:101F00001E4B85B0C4F884300423C4F88C30002301
:101F10000F460546A4F8783029F0DCFB014630BBBB
:101F2000D6F8CC300BB12846984738462CF08CF8C0
:101F3000AB6800251248C4F8883084F878502CF03B
:101F4000EFF8D6F8A0307BB1012301A8CDE9025506
:101F50008DF804302CF0ECF8022106F1900005B069
:101F6000BDE8F0402CF0ECB8FFF700FEF4E705B058
:101F7000F0BD00BFA91D00016C060021851B0001FA
:101F8000EC060021FFF7B6BF08B50022072007497D
:101F900001F0E6F900220820054901F0E1F9BDE869
:101FA000084024220021034830F08FBDF51E0001B7
:101FB000851F0001F405002130B50446034D0FCD07
:101FC0000FC40FCD0FC42B68236030BDF405002172
:101FD0002CF030B92DE9F0479A46054689462CF099
:101FE000E7FB2B4C2B4F94F878303860013384F8A2
:101FF000783029F05FFB18B9342127482AF0D6F948
:1020000029F058FBD4F89430D0F828800646C8F858
:102010009CA088F8A0901BB93D211F482AF0C6F962
:102020000023D4F894102A463046C4F89430D8F8E7
:102030009830984729F04EFB18B12CF0F9F829F0A8
:102040004FFB032D154C10D0042D12D0ADB92368D1
:1020500001332360258B2CF0ABFB3B68C01A854213
:102060000FD9208B2083BDE8F087A3680133A360DC
:10207000F0E7636801336360ECE7236901332361B0
:10208000E8E72CF095FB3B68C01A80B2EAE700BF96
:102090006C060021F0050021F83C03011806002120
:1020A00070B50446866A08462BF0CEFF104D114BE2
:1020B00005F18000C5F88430A368C5F88830D6F8EB
:1020C0009030C5F88C302CF02BF80023204685F892
:1020D0007830D6F89430984729F0FCFA30B129F0DE
:1020E000E9FA18B1BDE8704029F0FABA70BD00BF36
:1020F0006C060021D51F000108B50C20054A0649D1
:1021000001F02EF9BDE808401C220021034830F000
:10211000DCBC00BFD11F0001A12000011806002176
:102120002DE9F043204E1F46D6F8943085B0044682
:102130000D4690469DF830901BB1A5211B482AF012
:1021400035F9022301A88DF80430CDE90287C6F8DD
:102150009440A6F890502BF0EBFF96F8783013B12E
:10216000B9F1000F06D02946204605B0BDE8F0437E
:102170002CF02EB80E4E0F4FB6F814802CF018FB32
:102180003B68C01A804508D9B38A29462046B382E5
:1021900005B0BDE8F0432CF041B82CF009FB3B68DA
:1021A000C31A9BB2F1E700BF6C060021F83C0301A3
:1021B00018060021F005002170B50C460546074EB3
:1021C0002CF036F82046C6F888502BF03DFF06F17B
:1021D0008000BDE870402BF0A3BF00BF6C0600215B
:1021E0002CF028B870B504462CF0E2FA184A194DC4
:1021F00092F878302860013382F8783029F05AFA62
:1022000018B9352114482AF0D1F829F053FA836A15
:102210002146124CD3F894309847E3680133E360C9
:1022200029F058FA18B12CF003F829F059FA668B06
:102230002CF0BEFA2B68C01A864202D9608B6083EC
:1022400070BD2CF0B5FA2B68C01A80B2F7E700BF5A
:102250006C060021F0050021323D03011806002123
:1022600070B50446866A08462BF0EEFE0E4D0F4B05
:1022700005F18000C5F88030A368C5F88830A360F8
:102280002BF04EFF0023204685F87830D6F89030AA
:10229000984729F01FFA30B129F00CFA18B1BDE8BF
:1022A000704029F01DBA70BD6C060021E5210001C7
:1022B00008B50D20054A064901F052F8BDE808406E
:1022C0001C220021034830F000BC00BFE1210001C6
:1022D00061220001180600212DE9FF4104460D4648
:1022E00093B1022102928DF8041001A803932BF000
:1022F0001FFF134B93F878304BB92946204604B0A2
:10230000BDE8F0412BF01CBFCDE90133EDE70D4EE8
:102310000D4FB6F816802CF04BFA3B68C01A80457A
:1023200008D9F38A29462046F38204B0BDE8F0417B
:102330002BF030BF2CF03CFA3B68C31A9BB2F1E79C
:102340006C06002118060021F005002130B5044676
:10235000034D0FCD0FC495E8070084E8070030BD9A
:10236000180600211FB501238DF80430002301A8B1
:10237000CDE902332BF0DCFE05B05DF804FB000074
:102380002DE9F04104460D4629F094F9836A1B7843
:102390000A2B0BD1124B93F878303BB9FFF7E2FFD1
:1023A00029462046BDE8F0412BF0CABE0D4E0E4F27
:1023B000B6F816802CF0FCF93B68C01A804509D9A4
:1023C000F38AF382FFF7CEFF29462046BDE8F041AD
:1023D0002BF0E0BE2CF0ECF93B68C31A9BB2F0E79F
:1023E0006C06002134060021F005002170B5104E66
:1023F0000446D6F894300D461BB14F210D4829F004
:10240000D5FFC6F89440A6F8905029F053F9836A96
:102410001B780B2B0AD196F878303BB9FFF7A2FF57
:1024200029462046BDE870402BF0D2BE70BD00BFEB
:102430006C0600216B3D030130B50446034D0FCD02
:102440000FC495E8070084E8070030BD340600217A
:1024500070B50C46054600B121B940F23F110F4856
:1024600029F0A4FFD4F8AC3023B94FF4A0710B4885
:1024700029F09CFF2BF0DEFE094BD3F8941039B104
:1024800000222846C3F894200222D4F8AC309847A2
:102490002846D4F8A430BDE8704018479E3D03019B
:1024A0006C06002170B505460C46866A29F012F9C3
:1024B000002846D1D4F8A83023B94FF48D712148B3
:1024C00029F074FFD4F8AC3023B940F21B111D4839
:1024D00029F06CFFD4F8983023B94FF48E71194865
:1024E00029F064FFD4F8903023B940F21D1115484B
:1024F00029F05CFFD4F8943023B94FF48F71114860
:1025000029F054FF20462BF09FFD0F4C0F4B04F198
:102510008000C4F880300E4BC4F88430AB68C4F837
:102520008830AB600423C4F88C302BF0F9FD002315
:1025300084F87830D6F898301BB12846BDE8704052
:10254000184770BD9E3D03016C0600215525000112
:10255000392600012DE9F04385B005462CF028F915
:10256000314F386029F0A6F818B977212F4829F0A3
:102570001DFF29F09FF8D0F828902D4E2946D9F854
:10258000A83080469847D6F894102A4C00293AD0B3
:1025900055BBA58A2CF00CF93B68C01A85421DD9A1
:1025A000A08A0023A08201A8CDE9013303932BF078
:1025B000BFFDB6F89010D6F894002BF02FFEE3681C
:1025C0000133E360658B2CF0F3F83B68C01A854259
:1025D00013D9608B608305B0BDE8F0832CF0E8F878
:1025E0003B68C01A80B2DCE700230222C6F89430B0
:1025F0004046D9F8AC30984708E02CF0D9F83B6851
:10260000C01A80B2E6E70DB92BF012FE96F87830CA
:1026100023B929F065F8012386F87830002DCED053
:10262000236901332361CDE7F00500219E3D0301BD
:102630006C060021340600212DE9F34705460E46BD
:102640002CF0B6F8DFF84081C8F8000029F032F825
:1026500018B9C2214D4829F0A9FE29F02BF8002312
:10266000876A8DF8073087F8B0609DF82830484EAB
:1026700087F8B130D6F8943004461BB9CC214348D2
:1026800029F094FE0023D6F894102A462046C6F876
:102690009430D7F8AC30984729F01CF881460028D0
:1026A0003ED04FF0010929F015F840EA0900C0B208
:1026B000B8B1D6F894301BB1D721344829F076FE52
:1026C000062D06D80123AB4013F0510F01D02BF09B
:1026D000AFFD96F8783023B929F002F8012386F887
:1026E00078309DF8073023B929462046D7F8A03026
:1026F0009847032D274C34D0042D36D0002D38D1E7
:10270000236801332360258B2CF052F8D8F8003071
:10271000C01A854231D9208B208302B0BDE8F087F2
:102720002046D7F890300DF10701984782460028DF
:10273000B7D02BF07DFDD7F894300DF1070120467E
:102740009847A06A2BF080FCD6F888005044C6F861
:10275000880011482BF0E4FC2046D7F89C309847BD
:10276000A1E7A3680133A360CDE763680133636029
:10277000C9E7236901332361C5E72CF019F8D8F8BC
:102780000030C01A80B2C7E7F00500219E3D03016A
:102790006C06002134060021EC06002108B50A2051
:1027A000054A064900F0DCFDBDE808401C22002176
:1027B000034830F08AB900BF51240001A52400016C
:1027C0003406002170B50C46054600B121B94FF41E
:1027D000B8710F4829F0EAFDD4F8AC3023B940F2C3
:1027E00071110B4829F0E2FD2BF024FD094BD3F8C1
:1027F000941039B100222846C3F894200222D4F85C
:10280000AC3098472846D4F8A430BDE8704018474B
:10281000D83D03016C0600212DE9F041846A06468B
:10282000D4F8A8300F4623B940F24B11234829F0C1
:10283000BDFDD4F8AC3023B94FF4A6711F4829F080
:10284000B5FDD4F8983023B940F24D111B4829F05A
:10285000ADFDD4F8903023B94FF4A771174829F093
:10286000A5FDD4F8943023B940F24F11134829F054
:102870009DFD012384F8B030B3683846C4F8B83001
:102880002BF0E2FB0E4D0F4B05F18000C5F88030B8
:102890000D4BC5F88430D4F8B830C5F88830D4F87A
:1028A000C030C5F88C302BF03BFC0023304685F857
:1028B0007830D7F89830BDE8F0411847D83D03018B
:1028C0006C0600217D2A00012D2900012DE9F0412F
:1028D00006460C46904628F0FDFE074618B1012733
:1028E0003846BDE8F08141463046236898470546A2
:1028F0000028F4D02BF09CFC414663683046984792
:10290000B06A2BF0A1FBA36A07482B44A362B36013
:10291000C0F88830236B8030C3602BF001FC304658
:10292000E3689847DCE700BF6C0600212DE9F0431F
:1029300085B004460E4698462BF03AFF4B4F386060
:1029400028F0B8FE18B9E121494829F02FFD28F0F8
:10295000B1FE856A9DF8303085F8BC6014F0FB0646
:10296000814685F8BD3007D1C5F8B88001A8CDE90A
:10297000016603962BF0DCFB95F8B030012B06D1F5
:102980002EB9D5F8B83085F8B060C5F8B430394EF6
:10299000D6F894301BB9F721354829F007FD4FF0E0
:1029A0000008D6F89410D5F8AC3022464846C6F850
:1029B0009480984704F0FD03012B8DF804800ED11C
:1029C000484601AA05F19001FFF780FF9DF8043009
:1029D000804623B921464846D5F8A030984728F0CC
:1029E00079FE40EA0800C0B2C0B1D6F8943023B1F5
:1029F0004FF48A711E4829F0D9FC062C06D8012311
:102A0000A34013F0510F01D02BF012FC96F8783050
:102A100023B928F065FE012386F87830032C164D83
:102A200011D0042C13D0B4B92B6801332B602C8B3C
:102A30002BF0BEFE3B68C01A844210D9288B288335
:102A400005B0BDE8F083AB680133AB60EFE76B68BE
:102A500001336B60EBE72B6901332B61E7E72BF068
:102A6000A7FE3B68C01A80B2E9E700BFF00500216D
:102A7000D83D03016C060021340600212DE9F743FF
:102A800005462BF095FE3B4F386028F013FE18B931
:102A90007821394829F08AFC28F00CFE04464FF0D2
:102AA0000009866A2946D6F8A830984720460DF1D5
:102AB000070206F190018DF80790FFF707FF8046A7
:102AC00055BB28F007FE40EA0800C0B258B12BF011
:102AD000AFFB2A4B93F878302BB928F001FE012286
:102AE000264B83F878209DF8073023B929462046E5
:102AF000D6F8A0309847224C8DBBE3680133E360E1
:102B0000658B2BF055FE3B68C01A85422BD9608B34
:102B1000608303B0BDE8F083012D12D10028E2D01C
:102B2000DFF85880D8F8941031B102222046D6F848
:102B3000AC30C8F8949098472BF07AFB98F878302E
:102B4000CAE7DFF83880D8F894100029F6D00222BE
:102B50002046D6F8AC30C8F894909847EEE7236941
:102B600001332361CCE72BF023FE3B68C01A80B20F
:102B7000CEE700BFF0050021D83D03016C0600211F
:102B80003406002108B50B20054A064900F0E8FB91
:102B9000BDE808401C22002103482FF096BF00BF6B
:102BA000C527000119280001340600211FB50123A3
:102BB0008DF80430002301A8CDE902332BF0B8FAD8
:102BC00005B05DF804FB00002DE9F04104460D4618
:102BD00028F070FD836A1B78042B0BD1124B93F8FD
:102BE00078303BB9FFF7E2FF29462046BDE8F041C7
:102BF0002BF0A6BA0D4E0E4FB6F816802BF0D8FD6E
:102C00003B68C01A804509D9F38AF382FFF7CEFFEB
:102C100029462046BDE8F0412BF0BCBA2BF0C8FD98
:102C20003B68C31A9BB2F0E76C06002150060021F6
:102C3000F005002170B5104E0446D6F894300D46CC
:102C40001BB160210D4829F0B1FBC6F89440A6F8ED
:102C5000905028F02FFD836A1B78052B0AD196F837
:102C600078303BB9FFF7A2FF29462046BDE8704007
:102C70002BF0AEBA70BD00BF6C060021113E0301FF
:102C800030B50446034D0FCD0FC495E8070084E826
:102C9000070030BD5006002170B50C46054620B92E
:102CA00040F20D11124829F081FB24B94FF48771CD
:102CB0000F4829F07BFBD4F89C3023B940F20F1168
:102CC0000B4829F073FB2BF0B5FA0A4BD3F894109C
:102CD00039B100222846C3F894200222D4F89C304F
:102CE00098472846D4F89430BDE87040184700BF94
:102CF000453E03016C06002170B50C4606460846A9
:102D00002BF0A2F9D4F898301BB9F321124829F01E
:102D10004DFBD4F89C301BB9F4210F4829F046FB39
:102D20000E4D0F4B05F18000C5F880300D4BC5F8F6
:102D30008430B368C5F88830B3600423C5F88C309C
:102D40002BF0EEF90023304685F87830D4F8903037
:102D5000BDE87040184700BF453E03016C060021E6
:102D6000552E0001692D00012DE9F04105460C4664
:102D70002BF01EFD334F386028F09CFC18B98B21D6
:102D8000314829F013FB28F095FCD0F828809DF8F5
:102D9000183088F8A0402D4C88F8A13094F878308D
:102DA000064613B9012384F87830D4F894301BB95F
:102DB000A721254829F0FAFA0023D4F894102A46CE
:102DC0003046C4F89430D8F89C30984728F082FCFC
:102DD00088B1D4F894301BB1B0211B4829F0E6FA31
:102DE000062D06D80123AB4013F0510F01D02BF074
:102DF0001FFA28F075FC032D154C10D0042D12D0AD
:102E0000ADB9236801332360258B2BF0D1FC3B68DF
:102E1000C01A85420FD9208B2083BDE8F081A368BA
:102E20000133A360F0E7636801336360ECE7236973
:102E300001332361E8E72BF0BBFC3B68C01A80B28A
:102E4000EAE700BFF0050021453E03016C060021C2
:102E5000500600212DE9F04385B005462BF0A8FC73
:102E6000304E306028F026FC18B92F212E4829F06A
:102E70009DFA28F01FFCD0F82890DFF8B080294692
:102E8000D9F8983007469847D8F89410284C00296C
:102E90003CD065BBA58A2BF08BFC3368C01A8542F9
:102EA0001FD9A08A01238DF804300023A08201A835
:102EB000CDE902332BF03CF9B8F89010D8F8940023
:102EC0002BF0ACF9E3680133E360658B2BF070FC09
:102ED0003368C01A854213D9608B608305B0BDE8A2
:102EE000F0832BF065FC3368C01A80B2DAE7002368
:102EF0000222C8F894303846D9F89C30984708E048
:102F00002BF056FC3368C01A80B2E6E70DB92BF0FF
:102F10008FF928F0E5FB002DD4D02369013323611C
:102F2000D3E700BFF0050021453E03016C060021F8
:102F30005006002108B50420054A064900F010FAA1
:102F4000BDE808401C22002103482FF0BEBD00BF91
:102F5000992C0001F92C00015006002170B50C4697
:102F6000054620B94FF48871124829F01FFA24B998
:102F700040F211110F4829F019FAD4F8A03023B902
:102F80004FF489710B4829F011FA2BF053F90A4BD1
:102F9000D3F8941039B100222846C3F894200222B5
:102FA000D4F8A03098472846D4F89830BDE870404F
:102FB000184700BF803E03016C0600212DE9F04157
:102FC000876A0446D7F89C300E461BB9F021144896
:102FD00029F0ECF9D7F8A0301BB9F121104829F0FD
:102FE000E5F930462BF030F80E4D0F4B05F180001F
:102FF000C5F880300D4BC5F88430A368C5F888301B
:10300000A360D7F89030C5F88C302BF089F80023F6
:10301000204685F87830D6F89430BDE8F04118475E
:10302000803E03016C06002129310001313000018E
:103030002DE9F84305460C4699462BF0B9FBDFF81D
:10304000D880C8F8000028F035FB18B9892133482A
:1030500029F0ACF928F02EFB876A9DF8203087F81C
:10306000A8402F4C87F8A93094F87830064623B949
:103070000123C7F8A49084F87830D4F894301BB9B1
:10308000A721264829F092F90023D4F894102A4663
:103090003046C4F89430D7F8A030984728F01AFB8F
:1030A00088B1D4F894301BB1B1211C4829F07EF9C5
:1030B000062D06D80123AB4013F0510F01D02BF0A1
:1030C000B7F828F00DFB032D164C11D0042D13D0AA
:1030D000B5B9236801332360258B2BF069FBD8F841
:1030E0000030C01A85420FD9208B2083BDE8F883B9
:1030F000A3680133A360EFE7636801336360EBE724
:10310000236901332361E7E72BF052FBD8F8003045
:10311000C01A80B2E9E700BFF0050021803E03013C
:103120006C060021500600212DE9F04385B0804651
:103130002BF03EFB314D286028F0BCFA18B92F2146
:103140002F4829F033F928F0B5FAD0F828904146F5
:10315000D9F89C3007462B4E98472B4CB8F1000FFE
:1031600029D1D6F894300BB3A78A2BF021FB2B681A
:10317000C01A874214D9A08A01238DF80430002395
:10318000A08201A8CDE902332AF0D2FFB6F8901050
:10319000D6F894002BF042F8E3680133E3601AE0BC
:1031A0002BF006FB2B68C01A80B2E5E72BF040F845
:1031B00028F096FAF0E7D6F8941039B100230222ED
:1031C000C6F894303846D9F8A030984728F088FAE5
:1031D000236901332361668B2BF0EAFA2B68C01A4E
:1031E000864204D9608B608305B0BDE8F0832BF084
:1031F000DFFA2B68C01A80B2F5E700BFF0050021A6
:10320000803E03016C0600215006002108B5052010
:10321000054A064900F0A4F8BDE808401C22002138
:1032200003482FF052BC00BF5D2F0001BD2F0001ED
:10323000500600212BF008B82AF004BF08B52AF088
:1032400001FFBDE8084000202AF0F8BF08B52AF0C9
:10325000EBFE00202AF0F0FFBDE8084001202AF034
:10326000EDBF08B52AF0E0FEBDE8084000202AF0D6
:10327000E3BF08B52AF0D8FEBDE8084001202AF0D7
:10328000DBBF000070B5856A04462B780E2B03D98E
:103290007A21074829F08AF82A78064B03EBC20303
:1032A0005B6823B129462046BDE87040184770BDD1
:1032B000BA3E03016C06002170B5856A04462B787E
:1032C0000E2B03D96721074829F070F82A78064B9E
:1032D00053F8323023B129462046BDE870401847E4
:1032E00070BD00BFBA3E03016C06002173B5134CDC
:1032F000134D144E2AF096FE224629460120124B09
:10330000009628F01DFA2246294602200F4B00960F
:1033100028F016FA0E4B2246009300210D4B032095
:1033200028F00EFA01200C4928F036FA98220021E4
:103330000A4802B0BDE870402FF0C7BB85320001DB
:10334000B9320001393200017332000163320001E9
:103350003D3200014D320001353200016C06002182
:10336000034B43F8301003EBC0035A60704700BFB3
:103370006C060021F0B504468C46D3E900011646E0
:103380001D46177885B0002C36D0CFB14FEA112EEC
:103390000EF0C00EBEF1400F12D1BCF1000F04D0F0
:1033A00000F018FD204605B0F0BD00F089FC044691
:1033B00008B10124F6E71F4AD38B0133D383F1E729
:1033C00002460B46384600F089FD0238C0B201289B
:1033D000EFD80DF10F0300933078D5E9002300F00A
:1033E00021FC18B19DF80F30002BDBD1114A0224CB
:1033F000138B01331383D5E727B10B0A03F0C00306
:10340000402BD6D002460B46384600F067FD023806
:103410000128CED80DF10F0300933078D5E90023B1
:1034200000F000FC0028E1D09DF80F30002BC0D147
:10343000DCE700BF040700212DE9F041884617466C
:103440001E46044658B152EA06030E4D0AD100F05A
:103450008DFF012806D10446EB880133EB8020461E
:10346000BDE8F0813A463346404600F0FDFE20B903
:10347000AB8802240133AB80F1E7EB880133EB80AA
:10348000EDE700BF0407002137B5DDE9065410B9A8
:10349000002003B030BDCAB1230A03F0C003402BA3
:1034A00014D129B1284621460AAB08AA00F0E6FC4F
:1034B000DDE90A232846CDE9002321469DF8202096
:1034C00000F03CFC003818BF0120E2E79DF8200026
:1034D000DDE90A2300F013FD0238C0B20128D7D875
:1034E000024A0220538B01335383D2E704070021A1
:1034F0002DE9F04F90F800800D8808F00F0845FA8C
:1035000008F515F0010581460F4692461C466E4EA1
:1035100087B006D1338801333380284607B0BDE831
:10352000F08F4FF4C07B72884BFA08FB01321BF01E
:10353000010B4378728001D00125EEE703F03F03D1
:10354000637484F8108010F8025B28F0CBFEC5F39A
:103550008015E574A574C4E90201C4E90001786826
:10356000514604F1080304F11302C0F38010FFF781
:1035700001FF0128054602D0022839D05D46D4E972
:103580000223D7F804C094F813E01CF0040B0ED00B
:10359000D7E90410834208BF8A4203D1CCF3C00CA0
:1035A000E64527D04FF0020B308901303081788812
:1035B000714640FA08F000F00100FFF73DFF584562
:1035C00023D2D7F804C01CF0040F1CD0D7E9041391
:1035D000A068E2689A4208BF884204D1E37CCCF339
:1035E000C00C63450CD0338901333381012D1AD1CE
:1035F000002592E770894FF0010B01307081D6E70A
:1036000073890133738101250DE07888E17C40FAEC
:1036100008F000F00100D4E90223FFF70DFF0128B4
:10362000F1D90228E2D04FF0010BB8F1050F257552
:1036300084F815B080D80BFA08F818F02A0F3FF478
:103640007BAF484610F8085B28F04CFED4E9022313
:103650008146CDE904237868E37CED09CDE900914A
:1036600088462A4651460293C0F30010FFF70CFF2C
:1036700001283FF461AF0228BAD07B68DA077FF5F2
:103680005BAFD7E90212424508BF494503D1C3F3F6
:103690004002AA4213D0B2890132B281002DA7D0D4
:1036A0004FEA182808F0C008B8F14008A0D19B06DE
:1036B0009ED5338C0133338484F815802DE7F3894C
:1036C0000133F38138E700BF040700212DE9F04FF3
:1036D00007461C4608883B7C0E46184110F0010046
:1036E0009046624D87B005D12B8801332B8007B0FF
:1036F000BDE8F08F6B8801336B80D7E90023C4E904
:103700000223C4E90023BB7C04F11302E374A37415
:10371000486804F108034146C0F38010FFF72AFE11
:103720000128814603D002283DD04FF00009D4E99A
:103730000223D6F804C094F813E01CF0040A0ED05B
:10374000D6E90410834208BF8A4203D1CCF3C000FB
:1037500086452AD04FF0020A2889013028817088D6
:1037600097F810C0714640FA0CF000F00100FFF726
:1037700063FE504525D2D6F804C01CF0040F1DD0BE
:10378000D6E90413A068E2689A4208BF884204D1CF
:10379000E37CCCF3C00C63450DD02B8901332B8126
:1037A000B9F1010F1BD10020A1E768894FF0010A90
:1037B00001306881D3E76B8901336B814FF00109D8
:1037C0000DE03B7C7088E17C184100F00100D4E9F9
:1037D0000223FFF731FE0128F0D90228E0D04FF094
:1037E000010A84F8149084F815A07B7C990701D411
:1037F00001207CE797F81390D4E90223D7E902B7B8
:103800007068CDE90423E37C4A464146CDE900B720
:103810000293C0F30010FFF737FE01283FF467AFB3
:103820000228C0D07368DA07E2D5D6E90212BA429C
:1038300008BF594503D1C3F340024A4511D0AA89B4
:103840000132AA81B9F1000FADD03F0A07F0C007DD
:10385000403FA8D19B06A6D52B8C01332B846775DE
:10386000C6E7EB890133EB81C2E700BF0407002103
:10387000054B03F1240253F8041B934240F8041B48
:10388000F9D11B88038070470407002138B5002355
:103890000C4C0D4D23700D4C23708B070EBF0B4647
:1038A00021F0030304332B6003EB00135B1A9342F4
:1038B00005D90748522128F079FD002038BD207035
:1038C00098B2FBE72A0700212C0700212B070021D3
:1038D000EE3E0301F0B500240D499DF814C00D78AB
:1038E0000C490968A54201D80020F0BD0E7A864235
:1038F00008D1D1E900769E4208BF974202D14E7AA4
:10390000664502D001341031ECE70120EDE700BF3D
:103910002A0700212C070021014B1878704700BFAF
:103920002B0700210022014B1A7070472A07002143
:1039300030B50B490B4D09782C78A1420DD90A49B5
:10394000096801EB041108720120C1E900239DF808
:103950000C3001344B722C7030BD0020FCE700BFEE
:103960002B0700212A0700212C0700212DE9F04117
:103970001B4C8446276800253C46DFF868E09DF82C
:1039800018809EF80010EEB2B14201D8002021E06C
:10399000267A664520D1D4E900069E4208BF9042AF
:1039A0001AD1667A464517D1012901F1FF300ED9A7
:1039B00085420CD001F18051013907EB01110B7ADE
:1039C0002372D1E90023C4E900234B7A63728EF895
:1039D00000000120BDE8F08101351034D3E700BFBD
:1039E0002C0700212A070021F0B50C4943EA0043C7
:1039F0000D780B490C680021C8B2854201D800201F
:103A00000AE02046D0E908769E4208BF974201F1BD
:103A1000010104F14804EFD1F0BD00BF34070021DB
:103A20003807002130B585B00C460546102200212C
:103A300068462FF04AF86A46230A28468DF8004067
:103A40001146240C8DF801308DF802402AF0FCFC60
:103A50009DF802309DF801001B0443EA00239DF805
:103A60000000184305B030BD13B5042104460DEB2A
:103A700001002AF0A5FD01992046C1F3150141F48A
:103A800080010191FFF7CEFF019940EA0160090A28
:103A900002B010BD38B500230D4C0E4D23700E4CF6
:103AA00023708B070EBF0B4621F0030304332B60FA
:103AB000482505FB00335B1A934205D9074871215D
:103AC00028F074FC002038BD207098B2FBE700BFDE
:103AD0003407002138070021350700212A3F030160
:103AE000014B1860704700BF30070021014B187868
:103AF000704700BF350700210022014B1A70704744
:103B000034070021F8B507461D46FFF76DFF16463E
:103B1000044680B92E4A2F4913780978994201D872
:103B20000020F8BD48202C490C6800FB03440133F9
:103B30001370002CF4D0224645EA0745069BC4E9E1
:103B4000086503F1100153F8040B8B4242F8040B93
:103B5000F9D1012304F10F0284F84030631E13F8F9
:103B6000011F71B3002384F8403004F110000246B5
:103B7000079B03F1100153F8045B8B4242F8045B8E
:103B8000F9D1012384F84130034604F1200213F8EF
:103B9000011BC9B1002384F8413000230022C4E98D
:103BA0000A23C4E90C23C4E90E230023A4F84230FD
:103BB00094F841301BB9FFF757FFC4E90C0101200D
:103BC000AFE79A42CBD1D0E79A42E0D1E5E700BF18
:103BD00034070021350700213807002138B5FFF7E9
:103BE00003FF78B1084D2C78012C08D9482202FB3C
:103BF00004F30649483B096819442EF03FFF0120B1
:103C0000013C2C7038BD00BF34070021380700216B
:103C100008B5FFF7E9FE20B19DF8083080F8433081
:103C2000012008BD08B5FFF7DFFE20B190F8432062
:103C30000120029B1A7008BD10B5029CFFF7D4FE4C
:103C400040B1D0E90A2352EA030116BF0120002047
:103C5000C4E9002310BD10B5029CFFF7C5FE40B1BA
:103C6000D0E90C2352EA030116BF01200020C4E969
:103C7000002310BD08B5FFF7B7FE28B1029BD3E9BA
:103C80000023C0E90C23012008BD10B5FFF7ACFEEE
:103C9000044698B190F8403083B990F8423033B977
:103CA000FFF7E2FE0123C4E90A0184F84230029BD7
:103CB000D4E90A01C3E90001012010BD0020FCE79E
:103CC000F7B50026194C94F800C0194C2568344605
:103CD000F7B2BC4510D80CB3164C2468F4B1164E9C
:103CE000758C01357584D3E90067CDE900671378D9
:103CF0000122A047002411E095F8407097B9D5E95A
:103D00000A748C4208BF87420BD10124E98C01F070
:103D100001011170296AAA8CC3E90012204603B080
:103D2000F0BD012401364835D2E700BF3407002139
:103D30003807002130070021040700212DE9F3474F
:103D4000DDE90A679146804632463B4648460D46C5
:103D5000FFF74AFEE8B190F84140D4B9D0E90E230C
:103D6000AB4208BF424516D00C4BD3F800A0BAF1C5
:103D7000000F0AD00A4A4046938C294601339384A7
:103D80004B462246CDE90067D047204602B0BDE849
:103D9000F0870024F9E70124F7E700BF300700218E
:103DA0000407002138B505461046DDE904230C461A
:103DB000FFF71AFE50B190F8413043B9D0E90E2315
:103DC000A34208BFAA420CBF0120002038BD00203A
:103DD000FCE700002DE9F74F0E4605461F464FF061
:103DE00000084FF0480B010E41EA0621DFF880A0E1
:103DF000009221F07F411F4B5FFA88F41B78A342A9
:103E000005D81D4A0020138A0133138229E0DAF80D
:103E100000300BFB043494F84090B9F1000F23D12B
:103E2000D4E90A23B34208BFAA4210D02046019128
:103E3000FFF7F8FD25F07F438342019914D10E4A24
:103E4000C4E90A56538A84F8429001335382012010
:103E5000E38C009A03F001031370226AA38CC7E974
:103E6000002303B0BDE8F08F08F10108C3E700BFED
:103E700038070021340700210407002170B50E46E1
:103E80001146D3E9002305460878FFF7ADFD044647
:103E9000E0B190F84130CBB9D0E90E23B34208BF6E
:103EA000AA4211D0290E41EA062121F07F411030AB
:103EB000FFF7B8FD25F07F43834207D1064AC4E9E6
:103EC0000E56D38A0133D382012004E00020024A37
:103ED000938A0133938270BD0407002108B5FFF770
:103EE00083FD48B1D0E90A23134306D190F840304E
:103EF000002B14BF0120022008BD0320FCE708B5F9
:103F0000FFF772FD48B1D0E90C23134306D190F8B6
:103F10004130002B14BF0120022008BD0320FCE724
:103F20002DE9F04100254FF04808124E124F33782A
:103F3000ECB2A34201D8BDE8F0813B6808FB043431
:103F400094F841302BB904F11000FFF78DFDC4E95E
:103F50000C0194F840303BB994F8423023B120462C
:103F6000FFF782FDC4E90A01012384F844301D44AF
:103F7000DDE700BF340700213807002108B5FFF74F
:103F800033FD034620B1002290F8440083F844201A
:103F900008BD08B5FFF728FD003818BF012008BD8F
:103FA0001FB5002301A8CDE9013303932AF0C0F81F
:103FB00005B05DF804FB000030B5144B144D85B01E
:103FC000C5F88030134B0C46C5F884308368C5F8BB
:103FD00088308360D1F890300846C5F88C302AF0DC
:103FE00033F805F180002AF09BF803238DF80430A4
:103FF000002301A8CDE902332AF09AF8B4F89C1006
:10400000D4F898002AF0E4F805B030BDCD400001A6
:104010006C06002119400001F0B585B004460F463A
:1040200027F048FB18B97121254828F0BFF927F07F
:1040300041FB856A064685F89E70F4B9214B1B68E2
:104040002BB195F82C2012B105F12C009847214690
:104050003046D5F894309847B0B103238DF804303A
:10406000002301A8CDE902332AF062F8B5F89C10CC
:10407000D5F898002AF0D2F80AE014F0FB0FD5F832
:104080009430E4D0214698472AF0D2F827F028FB54
:10409000032C0D4B07D0042C09D064B91A680132E7
:1040A0001A6005B0F0BD9A6801329A60F9E75A6863
:1040B00001325A60F5E71A6901321A61F1E700BF6F
:1040C000613F0301800D00213C070021F7B5054643
:1040D00027F0F0FA18B92D211E4828F067F927F0CB
:1040E000E9FA1D4E0746846A25BB2AF0A1F8294645
:1040F0003846D4F89030984700B3184DB4F89A2059
:10410000D5F8883020461344C5F8883029F09CFF44
:1041100005F180002AF004F8FFF742FFB4F8983068
:104120000121ADF80030D4F89430684601932AF0AC
:1041300007F806E02946D4F89030984727F0D0FADF
:1041400025B9F3680133F36003B0F0BD336901337F
:104150003361F9E7613F03013C0700216C06002150
:1041600037B50C46104D114BC5F88030104BC5F8D3
:1041700084308368C5F888308360084629F064FF7E
:1041800005F1800029F0CCFFFFF70AFFB4F8983062
:104190000121ADF80030D4F894306846019329F03D
:1041A000CFFF03B030BD00BF6C060021CD40000141
:1041B0001940000108B52AF03DF8BDE8084027F095
:1041C0008FBA000010B5094C002022460849FFF7BD
:1041D000C7F8224601200749FFF7C2F8BDE81040A2
:1041E0001C22002104482EF070BC00BFB541000124
:1041F00061410001B93F00013C07002130B5044690
:10420000034D0FCD0FC495E8070084E8070030BDCB
:104210003C07002138B500230E4C0F4D23700F4C86
:104220002B7023708B070CBF0B4621F003030C4D42
:1042300018BF04332B6003EBC0035B1A934205D90C
:104240000848522128F0B2F8002038BD207098B2FA
:10425000FBE700BF59070021580700215A0700213A
:104260005C070021943F030130B50B4943EA00434A
:104270000A480968047801EBC404A14201D1002076
:1042800030BDD1E90050984208BF954201F10801C4
:10429000F3D10120F4E700BF5C070021590700219A
:1042A000014B1878704700BF5A0700210023024ACB
:1042B0001370024A137070475907002158070021F4
:1042C00070B5064615461C46FFF7CEFF80B9094B70
:1042D000094A197812788A420BD9084A44EA0644F6
:1042E000126802EBC10042F831500131446019708C
:1042F000012070BD590700215A0700215C070021E9
:1043000043EA00431148F0B50468DFF844C025468D
:104310009CF8001004EBC10E754501D1002014E09B
:104320002846D0E900769E4208BF974205F108056D
:10433000F2D1012905D904EBC10454E90223C0E9F3
:104340000023012001398CF80010F0BD5C0700212A
:10435000590700210122014B1A70704758070021AC
:104360000022014B1A70704758070021014B187842
:10437000704700BF5807002137B5044625F01CFDE3
:104380000022144B9C42144B0CBFDA701A7194F843
:10439000423003F0FD03012B01D125F025FD20461D
:1043A0000CF032FD04F1280528460DF1070128F034
:1043B000DCF940B9303420460DF1070128F0D5F979
:1043C00020B903B030BD28F0A9F9EDE728F0A6F92F
:1043D000F1E700BF800E0021B8520021154A38B520
:1043E000154C164B106851681D6804F13C0303C35B
:1043F00004F1480029790CF045FE012027F0B8F8B7
:1044000025F0D2FC01230E4DEB7094F8423003F0FE
:10441000FD03012B01D125F0DFFC0CF017FD00207E
:104420000123687184F8D031A4F8CE31BDE838405A
:1044300025F031BC90530021800E0021780E002120
:10444000B8520021054BDB7833B10123044880F8D2
:1044500099309C3027F0CCBD704700BFB852002186
:10446000800E0021002025F016BC0C2025F013BC86
:1044700008B5012027F09AF8BDE808400148FFF789
:104480007BBF00BF800E002108B5012027F08EF809
:104490000348FFF771FFBDE80840002025F0FBBB93
:1044A000800E0021FFF7E4BF034B044A19684B68F4
:1044B00013608B6853607047780E00219053002181
:1044C00008B5084B08481B68197990F888308B426A
:1044D00002D048300CF0D6FDBDE80840002025F0A1
:1044E000DABB00BF780E0021800E002110B5044613
:1044F000012027F05BF8A37B03F0FD03012B01D122
:1045000025F072FCD4F8C80220B128F007F9002386
:10451000C4F8C832D4F8D00220B128F0FFF8002344
:10452000C4F8D032064CE3781BB9A421054827F023
:104530003DFFE378013BE370BDE8104025F03CBC53
:10454000B8520021CD3F030138B505460F4C01207C
:1045500027F02CF82C1B0E48EB68241144430BB1B8
:10456000A0B298470434E0B226F0C8FD95F8D832DE
:104570000BB125F051FC25F01FFCD5F8C40208B1A1
:1045800028F0CCF800232B7038BD00BFE8190021BB
:10459000D32FFDD238B50C46054612220021204605
:1045A0002EF093FA204695F8403300F8023BD5E907
:1045B000D22327F09DFE95F841330E4A637095F89B
:1045C00088332372D5F86431A3FB0232DB0F43EA50
:1045D0004203638195F86831237395F86032637301
:1045E00095F86132A37395F86232E37395F86332FC
:1045F000237438BDE3361A0038B50446012026F08E
:10460000B7FFA37B03F0FD03012B01D125F0E4FBF1
:10461000002320466370A370A4F8083284F83C306D
:104620000DF0D6F8054620B920460DF0F1F9054603
:1046300040B1284625F0D8FC2046BDE8384003218B
:104640000DF00ABC074AD3780133D37025F0ACFBD8
:104650000123284684F86830A4F86630BDE8384065
:1046600025F0C2BCB8520021002025F0BDBC0000DE
:1046700030B4027C0121022A18BF00220C4C817048
:10468000657895420AD190F8082222B900F50370A6
:1046900030BC27F0ADBC00F54E70F9E701FA02F22C
:1046A000217821EA02022270032130BC0DF0D4BB34
:1046B00058100021002025F097BC000010B5094CCF
:1046C0006378012B04D9BDE810400C2025F08CBC88
:1046D00004F1600028F09BFA04F17000BDE810407E
:1046E00028F095BA60100021034B5B7813B10C20C1
:1046F00025F07ABC704700BF60100021024B58784B
:1047000000B10C2025F070BC6010002108B5FFF747
:10471000EDFE044B5B7823B1BDE80840002025F096
:1047200063BC08BD6010002138B51E4B01201C6819
:1047300026F01EFF23790BB125F066FB23791A4D75
:104740002B72D4E90223C5E90423E379AB72A37980
:104750006B72637D2B760DF0DFFED8B12862237972
:1047600080F8D832A37980F8D932E37980F8DA3248
:10477000D4E90223C0E9B8230A22238AA0F8D03260
:10478000638A5343C0F8D4320B2343726379837135
:10479000237DC371286A0DF02FFCBDE8384025F059
:1047A00003BB00BF543C0021103C0021034B5A784E
:1047B000012A04BF00225A70704700BF103C00213C
:1047C000084B186A90F8C3220AB9012202715B787B
:1047D000012B03D1C370303027F00ABC05210DF046
:1047E00055BB00BF103C002130B5104C87B063783A
:1047F000012B07D10025206AC3700571303027F0E6
:10480000F7FB6570206A01A9FFF7C4FE236A084917
:10481000084A591A091151433E2093F88D3401AAD0
:1048200089B225F01CFC07B030BD00BF103C002150
:10483000E8190021D32FFDD230B52F4C87B0637813
:10484000206A012B04BF00236370FFF77DFE256AF9
:104850002B7983B11222002101A82EF036F92749C5
:10486000274B691A09115943442095F88D3401AA40
:1048700089B225F0F4FB256A95F8C332BBB1217AE1
:1048800011F0010115D1122201A82EF01EF91B49C9
:104890001B4B691A091159431A2095F88D3401AA46
:1048A00089B225F0DCFB0022236A83F8C32207B01B
:1048B00030BD182027F02AFF01460028F3D040F22F
:1048C0000B134380D4E90423C0E90223A37AC37104
:1048D000637A8371237A0371236A9A794271B3F8F8
:1048E000D022D3F8D43202824382237E4375054B13
:1048F000187B27F02BFFD6E7103C0021E819002198
:10490000D32FFDD2005300212DE9F0434B4B85B04E
:104910001D680DF001FE0446002800F08C80012087
:1049200026F026FE002184F8D81295F82030444F56
:1049300084F8D93295F82130424E84F8DA32D5E93C
:104940000A23C4E9B82395F82330384684F888331D
:104950004FF47A73C4F8D4320C233461A4F8D01223
:104960006372A91D18F0CAFC40F2E242BB885343AF
:10497000C4F8643195F8203084F8403395F821303C
:1049800084F84133DB07D5E90A01C4E9D2011CD51B
:104990000B0A03F0C003403B17D14FF000084FF063
:1049A00000098DF807300DF1070202ABCDE902894D
:1049B000FFF710FA48B19DF8073043F0020384F87E
:1049C0004133DDE90223C4E9D22395F8323030695E
:1049D00084F88D346B6BC4F85C3295F8383084F809
:1049E000603295F8393084F8613295F83A3084F8BD
:1049F000623295F83B3084F863320DF0FDFA25F011
:104A0000D3F9AB88288BB3806B8B7080F380AB8B32
:104A100033812B8E738195F822303373EB8BF381C6
:104A20006B6B7361AB6BB3610DF0DCFB05B0BDE884
:104A3000F04306F033B805B0BDE8F083543C0021E4
:104A4000583C0021383C002170470000012310B57C
:104A5000064C2069C370303027F0CAFA21693E2025
:104A6000BDE8104091F88D240DF0A6BD383C002122
:104A7000034B18690123303000F82D3C27F0B8BAF9
:104A8000383C0021044B1869C378012B04BF002374
:104A9000C370FFF759BD00BF383C002110B5437A01
:104AA00004460B2B86B010D101A9FFF773FD0C490A
:104AB0000C4B611A09115943002094F88D3401AA56
:104AC00089B225F0CCFA06B010BD0C2BFBD1014603
:104AD00090F88D24002006B0BDE810400DF06CBDAC
:104AE000E8190021D32FFDD20123303000F82E3CED
:104AF00027F07EBAFFF728BD012310B50446837066
:104B0000303027F075FA04F54C7028F080F805482D
:104B1000201A054C00116043BDE8104080B225F01A
:104B2000CFBA00BFE8190021D32FFDD2F8B505791F
:104B3000C388012D1AD0022D21D0B5B94FF4B66229
:104B4000534313490688CC18B4F898214088921B27
:104B500082420ADCD4E9646703F53E73C4E9BE67A8
:104B6000C81825F099F984F88851F8BD4FF4B66259
:104B7000074802FB0303002283F8F021F5E74FF416
:104B8000B662034802FB0303002283F85822ECE7D5
:104B9000E819002108B525F00FF90022054B5A70DD
:104BA000054B93F821301BB1BDE8084025F01CB936
:104BB00008BD00BFB8520021C853002108B501202C
:104BC00026F0D6FC25F0F0F80122074B5A70074B6F
:104BD00093F821300BB125F0FFF80DF019FEBDE878
:104BE0000840002025F048B8B8520021C8530021E1
:104BF00008B5012026F0BCFC25F0D6F80122064BB2
:104C00005A70064B93F821300BB125F0E5F8BDE85A
:104C100008400DF0FDBD00BFB8520021C85300216F
:104C2000054B5B7833B10123044880F829302C30E0
:104C300027F0DEB9704700BFB8520021A03C002128
:104C4000002025F019B80C2025F016B82DE9F04108
:104C50005B4B8AB05B78002B00F0AF80594C94F826
:104C60002860002E00F08480D4F8EC80B8F1000FAA
:104C700079D0012204F5847304F1D0014046FEF797
:104C800037FC0646602027F041FD0546002800F06D
:104C9000908000F10807384608F1020118F00FFD76
:104CA000384618F063FD00B196B9284627F036FD66
:104CB000042027F02BFD014630B14FF441734380AF
:104CC000414B187B27F042FD012026F06FFC4AE0A3
:104CD0000023AB70D4F85831AB6394F81B3185F8DE
:104CE0003C3094F81A219A4207D1D4E94461D4E9BE
:104CF0004202914208BF864203D043F0020385F886
:104D00003C300020D4E944230021C5E91223C5E941
:104D1000140194F81B0194F81A11884207D1D4E9C0
:104D20004470D4E94261884208BFB74203D0D4E955
:104D30004201C5E9140195F83C0014F0C5FD0028B6
:104D4000B3D1224B2946D3E91C23C5E9162394F895
:104D50002A3085F8410085F83D300123EB871A4B56
:104D6000187B27F0F3FC0AB0BDE8F041FFF712BF53
:104D7000164C0DF087FE257C012DA5D1314624224D
:104D800001A82DF0A2FE43F60543ADF806303C2302
:104D90008DF80830A37C0DF10E008DF80D30D4E9AC
:104DA00006238DF80C5027F0A3FA01A824F05CFF2D
:104DB0008AE7002E3FF47CAFD5E70AB0BDE8F0816A
:104DC000B8520021A03C002100530021C85300210B
:104DD00008B5012026F0EAFBFFF7DCFE0DF052FEDD
:104DE000BDE80840002024F047BF08B5012026F0A8
:104DF000DDFBFFF7CFFEBDE808400DF043BE00002D
:104E0000054B30B51C68054D08340FCC0FC594E830
:104E10000F0085E80F0030BD780E0021D05300212F
:104E200010B50446012026F0C1FB074B1868201A74
:104E3000064C801160430430C0B226F06BF8BDE828
:104E4000104024F0B9BF00BFD43E002183BEA02F84
:104E500010B50446D0F8C80928B1043827F05EFC24
:104E60000023C4F8C839D4F88C0828B1043827F0D6
:104E700055FC0023C4F88C3894F83B300BB124F077
:104E8000B3FF054CA3781BB94B21044827F08EFAD9
:104E9000A378013BA37010BDB85200210E4003015E
:104EA00038B504461F4D012026F062FB2A682046D3
:104EB000137A84F84C33002384F84D3384F84E334E
:104EC00084F8C43784F8C6375168C4F850330FF0FB
:104ED00053F8014640B1607825F000F92046BDE85E
:104EE000384004210EF002BF0F4A937801339370CB
:104EF00094F83B300BB124F06FFF2B68596851B127
:104F00004FF47A72636A0A39B3FBF2F304F54F7017
:104F1000C91A27F076FE60780021BDE8384025F0F8
:104F2000DDB800BFD83E0021B852002138B5044694
:104F30001C4D012026F01CFB2A682046137A84F8B9
:104F40004C33002384F84D3384F84E3384F8C4374F
:104F500084F8C6375168C4F850330FF00DF8014695
:104F600040B1607825F0BAF82046BDE83840042109
:104F70000EF0BCBE2B685B6893B14FF47A71626A25
:104F80004B4302F59C520832B3FBF2F3013B53430F
:104F900004F54F70B3FBF1F1BDE8384027F031BEA6
:104FA00038BD00BFD83E002170B5134D00F54F76D7
:104FB0000446304627F02BFE2B685B687BB14FF42C
:104FC0007A71626A4B4302F59C520832B3FBF2F3EA
:104FD000013B53433046B3FBF1F127F012FE0021B1
:104FE0002B6860781B7A84F84D1384F84C33BDE845
:104FF000704025F073B800BFD83E002110B50446BC
:1050000000F54F7027F003FE002384F84E33012390
:1050100084F8C63710BD0021407825F05FB80C2118
:10502000407825F05BB80000F0B590F8C43704462E
:105030009DB0002B34D100F54F7027F0E8FD2046DD
:10504000FFF706FF012026F0B1FA94F84C2394F8FC
:105050004D3322B1934224BF432284F84E230022D1
:1050600094F84E13607824F026FE238C03F01D0381
:105070001D2B13D1002000213C230022CDE9040187
:10508000CDE90632CDE90201D4E90C0194F83A30B9
:10509000CDE900010121607801F09EFC1DB0F0BD5A
:1050A000D0F88C687B4F002E77D000F6A80300F56F
:1050B000076101223046FEF71BFA002800F0D0807D
:1050C000602027F023FB0546002800F0C9806378A4
:1050D000314603800023837010A818F0C7FA3118F6
:1050E00005F1080018F0EBFAD4F88C38002B00F02A
:1050F000828094F8BBC804F50B6185F83CC094F835
:10510000BA38634508D151E90203D4F8B0684A6857
:105110009A4208BF864203D04CF0020C85F83CC08E
:10512000D1E90023C5E9122300220023C5E9142395
:1051300094F8BB2894F8BA389A4208D151E902038E
:10514000D4F8B0684A689A4208BF864203D051E951
:105150000223C5E91423012385F83E30D4F8C03773
:10516000387BAB634C4B2946D3E91C23C5E9162396
:1051700094F8C53785F83D30012385F83F3094F821
:105180004D3385F8403094F8BC3785F8413027F02E
:10519000DDFA2046FFF75CFE80E7D0F8C869002EF4
:1051A00071D0314608A818F061FA311810A818F02B
:1051B00086FA00230F939DF8203004F507618DF8DF
:1051C000383003238DF83930DDE91023CDE90A2387
:1051D0009DF822300AA88DF83A30DDE91223CDE996
:1051E0000C239DF8233001228DF83B3004F5206319
:1051F000FEF76CFA61E794F813CA04F5206185F8AC
:105200003CC094F8123A634508D1D1E90262D4F85F
:10521000000A4B689A4208BF864203D04CF0020C49
:1052200085F83CC0D1E90223C5E9122300220023FE
:10523000C5E9142394F8132A94F8123A9A4208D133
:10524000D1E90262D4F8000A4B689A4208BF86424C
:1052500003D0D1E90023C5E9142394F835397BE75D
:105260006378311F26F8043C082306F8023C032328
:1052700006F8013C387B27F069FA01201DB0BDE833
:10528000F04026F093B940F26B11044827F08EF8F5
:1052900016E700BF00530021C85300210E40030150
:1052A00010B50446FFF7D4FD012026F07FF96078A1
:1052B0000021BDE8104024F011BF10B50446FFF7EF
:1052C000C7FD012026F072F92046BDE810400DF020
:1052D00069BD3C2380F84E33012380F8C637704700
:1052E000F8B5D0E90076002504462B46C3F120002E
:1052F000A3F1200127FA03F206FA00F0024326FA8E
:1053000001F10A43D20744BF6219137203F101038A
:1053100048BF0135252BE9D125B940F20B210348BF
:1053200027F044F884F82D50F8BD00BF0E4003016B
:1053300070B504460025012026F01AF984F8C652FB
:105340000BF034FC94F82F33A4F8905165F3060366
:10535000254684F82F33364BC4F88C01D3E90E234D
:10536000E5E9B823284624F097FD012384F80E339D
:10537000D4F88C3183EA1343A4F8103394F8453AF7
:10538000FBB194F82F13B4F8903101F07F0159402C
:1053900028460DF023FE94F8453A84F8C5022046CD
:1053A00093B1244B1B687BB19847054678B12046E2
:1053B00003210EF001FF29466078BDE8704024F01B
:1053C000CCBEB4F89011E3E70EF046FFEDE7012301
:1053D00084F88931A378012B13D194F82D2A0AB9C6
:1053E00084F89231D4F89064B4F88C5424F009FC19
:1053F0003246294626F088FF0123A4F89C0484F84D
:105400002E3A94F8CC325BB1D4F89064B4F88C5452
:1054100024F0F7FB3246294626F076FFA4F8CE02A8
:105420006078002124F099FEBDE8704024F0BCBCF7
:10543000B8520021600700210021407824F08DBE81
:105440000C21407824F089BEF8B583780446012BFE
:1054500011D190F88951012D0DD1D0F89074B0F888
:105460008C6424F0CEFB3A46314626F04DFF84F89A
:105470002E5AA4F89C04012384F8C632002304F5B4
:10548000CA7084F8893184F89231BDE8F84026F07A
:10549000AFBD10B590F888310446012B04D1FFF759
:1054A000D3FF2046FFF7BCFC2046BDE81040FFF7C5
:1054B000A5BD10B590F888310446012B04D1FFF743
:1054C000C3FF2046FFF7ACFC2046BDE810400DF0BE
:1054D00069BC10B50446FFF7A3FC60780021BDE865
:1054E000104024F03ABE000090F85030012B12D04A
:1054F000094B1B68D3E90223C0E9C623C0E9162380
:10550000B0F890310633A0F86030082380F85230AC
:10551000012380F850307047D03E0021D0F8383A4F
:105520000BB1407818477047D0F83C3A0BB140783F
:105530001847704790F82031012B0ED0D0F8203357
:10554000C0F82431B0F82433A0F82831B0F82C3357
:10555000A0F82A31092380F8223170470023C0F8CF
:105560002031C0F82431C0F828317047682200216A
:105570002DF0ABBA5030FFF7F9BF2A2307B58DF8ED
:1055800003008DF804006846ADF800108DF8023075
:105590008DF8051024F068FB03B05DF804FB2C23A4
:1055A00007B5ADF800008DF804006846ADF802308C
:1055B0008DF8051024F058FB03B05DF804FB08B526
:1055C000012025F0D5FFBDE8084024F0EDBB000028
:1055D0002DE9F04F0446DFF844818FB0D8F8006021
:1055E000DFF83CA106F1080529460FF003FF294624
:1055F00020460FF067FF0025B37DAB4244D900275A
:1056000094F8562004F1570305F1010906E0D4F897
:10561000942052BBC4F894B027E00137BA4224D991
:1056200013F8011B4945F8D120460FF051F8834685
:1056300018B9A321504626F0B9FE96F84010F28E14
:105640000291D6E90E01CDE900015846F16A0FF04A
:10565000E5F8D4F89020002AD9D1E368C4F890B0D6
:105660006B4384F89C50C4F8983094F85630BB4291
:1056700008D194F834305A1C84F8342000220E33B8
:1056800044F823204D46B7E7D8F8001020460831EB
:105690000FF038FE216F04F1600027F0B2FA2B23DF
:1056A000A5782022002106A8ADF81630ADF81450D8
:1056B0002DF00BFAE36A1B4A0793A38A04F1380121
:1056C0005BBAADF82030E38A8DF81950ADF822307E
:1056D000A3885034ADF8243054F8403CA3FB023288
:1056E000DB0F43EA42030022ADF82630134651F89F
:1056F000040B40B140880EAD5A1C05EB430323F860
:105700000E0CD3B201228C42F1D10AB18DF82830AF
:1057100005A824F0A9FA0FB0BDE8F08FF43E0021EF
:105720004E400301E3361A0090F8BA3080F8543046
:10573000704710B543780446012B8AB018D18178A0
:105740000020FFF71AFF2022002102A82DF0BDF94A
:105750002B228DF806204422A37801A8ADF804304E
:105760008DF807208DF808208DF8093024F07CFA98
:105770000AB010BD082380F8543070473D2380F8EC
:105780005430704710B50446012025F00FFF236DFB
:1057900013B1002283F8F2216378032B06D194F829
:1057A0005430A0784BB11946FFF7F9FE20460FF0B0
:1057B00031FBBDE8104024F0FFBA01461846FFF760
:1057C000DCFEF3E7F8B5054610F054FC044648B19A
:1057D0002846042110F01CFC21462846BDE8F8406C
:1057E00010F0B0BB012025F0C3FE2C6DCCB101231D
:1057F00084F88931A378012B13D194F82D2A0AB9A2
:1058000084F89231D4F89074B4F88C6424F0F9F9E7
:105810003A46314626F078FD0123A4F89C0484F82A
:105820002E3A2846022110F009FCBDE8F84024F089
:10583000BBBA0000F0B5044685B007200FF01EFA91
:10584000064630B3144B03A91868258C03903046E4
:1058500019F0BAFA114F0635ADB2D7E90E2300950B
:10586000304419F0C4FA0622314620460FF00DFAF2
:1058700094F8A030A4F8A85043F0010384F8A030B5
:10588000D7E90E23C4E92C23236D13B1002283F83A
:10589000B82005B0F0BD00BF8C400301B852002114
:1058A00073B5044603200FF0E9F90646E0B1124B48
:1058B00001A95868258C0190304619F085FA063503
:1058C000ADB22A4694F8BA10304419F0A2FA062272
:1058D000314620460FF0D9F994F8A030A4F8B8501A
:1058E00043F0020384F8A0300321204602B0BDE853
:1058F000704010F0A3BB00BF8C40030110B50446FC
:10590000C43026F075FB2046BDE81040032110F09E
:1059100095BB000010B504460D4B1B68C31A0D481B
:10592000DB1043430C33D8B225F0F4FA012025F004
:105930003DFE20460FF06EFA24F03EFA6378022B0B
:1059400004D12046BDE8104010F04EBB10BD00BF92
:10595000EC3E0021E9473FFA7FB50622ADF806206C
:10596000002203890D4DADF80430ADF80A30C37F35
:1059700001A88DF80C308DF8082024F075F92B78EB
:105980004BB1074EF08810F081FC044618B9304640
:1059900024F06AF92C7004B070BD00BF6E070021BE
:1059A000640700212DE9F0438BB0044615460E46EE
:1059B0002422002101A82DF088F826238DF802303A
:1059C00040F2E243B4F8682294F86B1294F86A72D9
:1059D00002FB01FE02FB07F003FB0EFE94F85A9255
:1059E00003FB00F8D4F86432B9F1010F0CBF5B1966
:1059F000EB1A734405932369D4F860020393B4F857
:105A00005632B4F808C0ADF8183094F86C3208BFBC
:105A100040198DF81A3094F8743218BF281A8DF88E
:105A20001B3094F8753208BF40448DF81C30A37ABF
:105A300018BF4044ADF800C08DF803600CBF04905F
:105A40000490ADF806C08DF8046002958DF81D70C5
:105A50008DF81E10ADF824208BB9B4F83021012B3D
:105A60000CBFB4F83031B4F82C316846ADF82020C2
:105A7000ADF8223024F0F8F80BB0BDE8F083B4F8AC
:105A80002C21ECE738B5054604200C4626F03EFEF6
:105A9000014650B12B89C47003800F238370034BE0
:105AA000187BBDE8384026F051BE38BD00530021B8
:105AB00038B5054604200C4626F028FE014650B1B4
:105AC000EB88C470038001238370034B187BBDE80F
:105AD000384026F03BBE38BD00530021014B9B7C73
